{
  "contractName": "AIModelMarketplace",
  "abi": [
    {
      "anonymous": false,
      "inputs": [
        {
          "indexed": false,
          "internalType": "uint256",
          "name": "modelId",
          "type": "uint256"
        },
        {
          "indexed": false,
          "internalType": "string",
          "name": "name",
          "type": "string"
        },
        {
          "indexed": false,
          "internalType": "string",
          "name": "description",
          "type": "string"
        },
        {
          "indexed": false,
          "internalType": "uint256",
          "name": "price",
          "type": "uint256"
        },
        {
          "indexed": false,
          "internalType": "address",
          "name": "creator",
          "type": "address"
        }
      ],
      "name": "ModelListed",
      "type": "event"
    },
    {
      "anonymous": false,
      "inputs": [
        {
          "indexed": false,
          "internalType": "uint256",
          "name": "modelId",
          "type": "uint256"
        },
        {
          "indexed": false,
          "internalType": "address",
          "name": "buyer",
          "type": "address"
        },
        {
          "indexed": false,
          "internalType": "uint256",
          "name": "price",
          "type": "uint256"
        }
      ],
      "name": "ModelPurchased",
      "type": "event"
    },
    {
      "anonymous": false,
      "inputs": [
        {
          "indexed": false,
          "internalType": "uint256",
          "name": "modelId",
          "type": "uint256"
        },
        {
          "indexed": false,
          "internalType": "address",
          "name": "rater",
          "type": "address"
        },
        {
          "indexed": false,
          "internalType": "uint8",
          "name": "rating",
          "type": "uint8"
        }
      ],
      "name": "ModelRated",
      "type": "event"
    },
    {
      "inputs": [
        {
          "internalType": "uint256",
          "name": "",
          "type": "uint256"
        }
      ],
      "name": "models",
      "outputs": [
        {
          "internalType": "string",
          "name": "name",
          "type": "string"
        },
        {
          "internalType": "string",
          "name": "description",
          "type": "string"
        },
        {
          "internalType": "uint256",
          "name": "price",
          "type": "uint256"
        },
        {
          "internalType": "address",
          "name": "creator",
          "type": "address"
        },
        {
          "internalType": "uint256",
          "name": "totalRating",
          "type": "uint256"
        },
        {
          "internalType": "uint256",
          "name": "numberOfRatings",
          "type": "uint256"
        }
      ],
      "stateMutability": "view",
      "type": "function",
      "constant": true
    },
    {
      "inputs": [
        {
          "internalType": "uint256",
          "name": "",
          "type": "uint256"
        },
        {
          "internalType": "address",
          "name": "",
          "type": "address"
        }
      ],
      "name": "ratings",
      "outputs": [
        {
          "internalType": "uint8",
          "name": "",
          "type": "uint8"
        }
      ],
      "stateMutability": "view",
      "type": "function",
      "constant": true
    },
    {
      "inputs": [
        {
          "internalType": "string",
          "name": "name",
          "type": "string"
        },
        {
          "internalType": "string",
          "name": "description",
          "type": "string"
        },
        {
          "internalType": "uint256",
          "name": "price",
          "type": "uint256"
        }
      ],
      "name": "listModel",
      "outputs": [],
      "stateMutability": "nonpayable",
      "type": "function"
    },
    {
      "inputs": [
        {
          "internalType": "uint256",
          "name": "modelId",
          "type": "uint256"
        }
      ],
      "name": "purchaseModel",
      "outputs": [],
      "stateMutability": "payable",
      "type": "function",
      "payable": true
    },
    {
      "inputs": [
        {
          "internalType": "uint256",
          "name": "modelId",
          "type": "uint256"
        },
        {
          "internalType": "uint8",
          "name": "rating",
          "type": "uint8"
        }
      ],
      "name": "rateModel",
      "outputs": [],
      "stateMutability": "nonpayable",
      "type": "function"
    },
    {
      "inputs": [],
      "name": "withdrawFunds",
      "outputs": [],
      "stateMutability": "nonpayable",
      "type": "function"
    },
    {
      "inputs": [
        {
          "internalType": "uint256",
          "name": "modelId",
          "type": "uint256"
        }
      ],
      "name": "getModelDetails",
      "outputs": [
        {
          "internalType": "string",
          "name": "name",
          "type": "string"
        },
        {
          "internalType": "string",
          "name": "description",
          "type": "string"
        },
        {
          "internalType": "uint256",
          "name": "price",
          "type": "uint256"
        },
        {
          "internalType": "address",
          "name": "creator",
          "type": "address"
        },
        {
          "internalType": "uint256",
          "name": "averageRating",
          "type": "uint256"
        }
      ],
      "stateMutability": "view",
      "type": "function",
      "constant": true
    },
    {
      "inputs": [],
      "name": "getModelCount",
      "outputs": [
        {
          "internalType": "uint256",
          "name": "",
          "type": "uint256"
        }
      ],
      "stateMutability": "view",
      "type": "function",
      "constant": true
    }
  ],
  "bytecode": "0x608060405234801561001057600080fd5b50611784806100206000396000f3fe60806040526004361061007b5760003560e01c80634989dbb01161004e5780634989dbb01461012a5780634bab0585146101555780636a030ca914610192578063dc746862146101d45761007b565b806312ee1c0e146100805780631c788a9a146100a957806324600fc3146100d257806331fc042f146100e9575b600080fd5b34801561008c57600080fd5b506100a760048036038101906100a29190610db7565b6101f0565b005b3480156100b557600080fd5b506100d060048036038101906100cb9190610e9b565b61039f565b005b3480156100de57600080fd5b506100e761060c565b005b3480156100f557600080fd5b50610110600480360381019061010b9190610e36565b61070c565b604051610121959493929190611149565b60405180910390f35b34801561013657600080fd5b5061013f610930565b60405161014c91906112f9565b60405180910390f35b34801561016157600080fd5b5061017c60048036038101906101779190610e5f565b61093c565b60405161018991906113e3565b60405180910390f35b34801561019e57600080fd5b506101b960048036038101906101b49190610e36565b61096b565b6040516101cb969594939291906111aa565b60405180910390f35b6101ee60048036038101906101e99190610e36565b610ae7565b005b60008111610233576040517f08c379a000000000000000000000000000000000000000000000000000000000815260040161022a906112d9565b60405180910390fd5b60006040518060c001604052808581526020018481526020018381526020013373ffffffffffffffffffffffffffffffffffffffff168152602001600081526020016000815250908060018154018082558091505060019003906000526020600020906006020160009091909190915060008201518160000190805190602001906102bf929190610c6d565b5060208201518160010190805190602001906102dc929190610c6d565b506040820151816002015560608201518160030160006101000a81548173ffffffffffffffffffffffffffffffffffffffff021916908373ffffffffffffffffffffffffffffffffffffffff1602179055506080820151816004015560a082015181600501555050600060016000805490506103589190611502565b90507f988447004164f28081936f22661fc3898dda52a0210617c848e707ce976307bb8185858533604051610391959493929190611382565b60405180910390a150505050565b60008054905082106103e6576040517f08c379a00000000000000000000000000000000000000000000000000000000081526004016103dd90611219565b60405180910390fd5b60018160ff16101580156103fe575060058160ff1611155b61043d576040517f08c379a000000000000000000000000000000000000000000000000000000000815260040161043490611299565b60405180910390fd5b6000808381548110610478577f4e487b7100000000000000000000000000000000000000000000000000000000600052603260045260246000fd5b9060005260206000209060060201905060006001600085815260200190815260200160002060003373ffffffffffffffffffffffffffffffffffffffff1673ffffffffffffffffffffffffffffffffffffffff16815260200190815260200160002060009054906101000a900460ff1660ff161461052b576040517f08c379a000000000000000000000000000000000000000000000000000000000815260040161052290611279565b60405180910390fd5b816001600085815260200190815260200160002060003373ffffffffffffffffffffffffffffffffffffffff1673ffffffffffffffffffffffffffffffffffffffff16815260200190815260200160002060006101000a81548160ff021916908360ff1602179055508160ff168160040160008282546105ab919061147b565b925050819055508060050160008154809291906105c7906115f3565b91905055507ffaf9f3e1fdcee02b60a86f88d3d00c69853925ce50a737a2f544c5d0cb132da58333846040516105ff9392919061134b565b60405180910390a1505050565b3073ffffffffffffffffffffffffffffffffffffffff163373ffffffffffffffffffffffffffffffffffffffff161461067a576040517f08c379a0000000000000000000000000000000000000000000000000000000008152600401610671906112b9565b60405180910390fd5b6000479050600081116106c2576040517f08c379a00000000000000000000000000000000000000000000000000000000081526004016106b990611239565b60405180910390fd5b3373ffffffffffffffffffffffffffffffffffffffff166108fc829081150290604051600060405180830381858888f19350505050158015610708573d6000803e3d6000fd5b5050565b60608060008060008080549050861061075a576040517f08c379a000000000000000000000000000000000000000000000000000000000815260040161075190611219565b60405180910390fd5b6000808781548110610795577f4e487b7100000000000000000000000000000000000000000000000000000000600052603260045260246000fd5b906000526020600020906006020190506000808260050154146107cb57816005015482600401546107c691906114d1565b6107ce565b60005b9050816000018260010183600201548460030160009054906101000a900473ffffffffffffffffffffffffffffffffffffffff168484805461080f906115c1565b80601f016020809104026020016040519081016040528092919081815260200182805461083b906115c1565b80156108885780601f1061085d57610100808354040283529160200191610888565b820191906000526020600020905b81548152906001019060200180831161086b57829003601f168201915b5050505050945083805461089b906115c1565b80601f01602080910402602001604051908101604052809291908181526020018280546108c7906115c1565b80156109145780601f106108e957610100808354040283529160200191610914565b820191906000526020600020905b8154815290600101906020018083116108f757829003601f168201915b5050505050935096509650965096509650505091939590929450565b60008080549050905090565b60016020528160005260406000206020528060005260406000206000915091509054906101000a900460ff1681565b6000818154811061097b57600080fd5b906000526020600020906006020160009150905080600001805461099e906115c1565b80601f01602080910402602001604051908101604052809291908181526020018280546109ca906115c1565b8015610a175780601f106109ec57610100808354040283529160200191610a17565b820191906000526020600020905b8154815290600101906020018083116109fa57829003601f168201915b505050505090806001018054610a2c906115c1565b80601f0160208091040260200160405190810160405280929190818152602001828054610a58906115c1565b8015610aa55780601f10610a7a57610100808354040283529160200191610aa5565b820191906000526020600020905b815481529060010190602001808311610a8857829003601f168201915b5050505050908060020154908060030160009054906101000a900473ffffffffffffffffffffffffffffffffffffffff16908060040154908060050154905086565b6000805490508110610b2e576040517f08c379a0000000000000000000000000000000000000000000000000000000008152600401610b2590611219565b60405180910390fd5b6000808281548110610b69577f4e487b7100000000000000000000000000000000000000000000000000000000600052603260045260246000fd5b9060005260206000209060060201905080600201543414610bbf576040517f08c379a0000000000000000000000000000000000000000000000000000000008152600401610bb690611259565b60405180910390fd5b8060030160009054906101000a900473ffffffffffffffffffffffffffffffffffffffff1673ffffffffffffffffffffffffffffffffffffffff166108fc349081150290604051600060405180830381858888f19350505050158015610c29573d6000803e3d6000fd5b507fb5d54ea46e4c298281d5e6ccd4df1ac37f8d49fa68ba9984d1677d046025bb1182338360020154604051610c6193929190611314565b60405180910390a15050565b828054610c79906115c1565b90600052602060002090601f016020900481019282610c9b5760008555610ce2565b82601f10610cb457805160ff1916838001178555610ce2565b82800160010185558215610ce2579182015b82811115610ce1578251825591602001919060010190610cc6565b5b509050610cef9190610cf3565b5090565b5b80821115610d0c576000816000905550600101610cf4565b5090565b6000610d23610d1e8461142f565b6113fe565b905082815260208101848484011115610d3b57600080fd5b610d4684828561157f565b509392505050565b600081359050610d5d81611709565b92915050565b600082601f830112610d7457600080fd5b8135610d84848260208601610d10565b91505092915050565b600081359050610d9c81611720565b92915050565b600081359050610db181611737565b92915050565b600080600060608486031215610dcc57600080fd5b600084013567ffffffffffffffff811115610de657600080fd5b610df286828701610d63565b935050602084013567ffffffffffffffff811115610e0f57600080fd5b610e1b86828701610d63565b9250506040610e2c86828701610d8d565b9150509250925092565b600060208284031215610e4857600080fd5b6000610e5684828501610d8d565b91505092915050565b60008060408385031215610e7257600080fd5b6000610e8085828601610d8d565b9250506020610e9185828601610d4e565b9150509250929050565b60008060408385031215610eae57600080fd5b6000610ebc85828601610d8d565b9250506020610ecd85828601610da2565b9150509250929050565b610ee081611536565b82525050565b6000610ef18261145f565b610efb818561146a565b9350610f0b81856020860161158e565b610f14816116f8565b840191505092915050565b6000610f2c60108361146a565b91507f496e76616c6964206d6f64656c204944000000000000000000000000000000006000830152602082019050919050565b6000610f6c60148361146a565b91507f4e6f2066756e647320746f2077697468647261770000000000000000000000006000830152602082019050919050565b6000610fac60148361146a565b91507f496e636f72726563742070726963652073656e740000000000000000000000006000830152602082019050919050565b6000610fec60218361146a565b91507f596f75206861766520616c72656164792072617465642074686973206d6f646560008301527f6c000000000000000000000000000000000000000000000000000000000000006020830152604082019050919050565b6000611052601e8361146a565b91507f526174696e67206d757374206265206265747765656e203120616e64203500006000830152602082019050919050565b600061109260268361146a565b91507f4f6e6c7920636f6e7472616374206f776e65722063616e20776974686472617760008301527f2066756e647300000000000000000000000000000000000000000000000000006020830152604082019050919050565b60006110f8601c8361146a565b91507f5072696365206d7573742062652067726561746572207468616e2030000000006000830152602082019050919050565b61113481611568565b82525050565b61114381611572565b82525050565b600060a08201905081810360008301526111638188610ee6565b905081810360208301526111778187610ee6565b9050611186604083018661112b565b6111936060830185610ed7565b6111a0608083018461112b565b9695505050505050565b600060c08201905081810360008301526111c48189610ee6565b905081810360208301526111d88188610ee6565b90506111e7604083018761112b565b6111f46060830186610ed7565b611201608083018561112b565b61120e60a083018461112b565b979650505050505050565b6000602082019050818103600083015261123281610f1f565b9050919050565b6000602082019050818103600083015261125281610f5f565b9050919050565b6000602082019050818103600083015261127281610f9f565b9050919050565b6000602082019050818103600083015261129281610fdf565b9050919050565b600060208201905081810360008301526112b281611045565b9050919050565b600060208201905081810360008301526112d281611085565b9050919050565b600060208201905081810360008301526112f2816110eb565b9050919050565b600060208201905061130e600083018461112b565b92915050565b6000606082019050611329600083018661112b565b6113366020830185610ed7565b611343604083018461112b565b949350505050565b6000606082019050611360600083018661112b565b61136d6020830185610ed7565b61137a604083018461113a565b949350505050565b600060a082019050611397600083018861112b565b81810360208301526113a98187610ee6565b905081810360408301526113bd8186610ee6565b90506113cc606083018561112b565b6113d96080830184610ed7565b9695505050505050565b60006020820190506113f8600083018461113a565b92915050565b6000604051905081810181811067ffffffffffffffff82111715611425576114246116c9565b5b8060405250919050565b600067ffffffffffffffff82111561144a576114496116c9565b5b601f19601f8301169050602081019050919050565b600081519050919050565b600082825260208201905092915050565b600061148682611568565b915061149183611568565b9250827fffffffffffffffffffffffffffffffffffffffffffffffffffffffffffffffff038211156114c6576114c561163c565b5b828201905092915050565b60006114dc82611568565b91506114e783611568565b9250826114f7576114f661166b565b5b828204905092915050565b600061150d82611568565b915061151883611568565b92508282101561152b5761152a61163c565b5b828203905092915050565b600061154182611548565b9050919050565b600073ffffffffffffffffffffffffffffffffffffffff82169050919050565b6000819050919050565b600060ff82169050919050565b82818337600083830152505050565b60005b838110156115ac578082015181840152602081019050611591565b838111156115bb576000848401525b50505050565b600060028204905060018216806115d957607f821691505b602082108114156115ed576115ec61169a565b5b50919050565b60006115fe82611568565b91507fffffffffffffffffffffffffffffffffffffffffffffffffffffffffffffffff8214156116315761163061163c565b5b600182019050919050565b7f4e487b7100000000000000000000000000000000000000000000000000000000600052601160045260246000fd5b7f4e487b7100000000000000000000000000000000000000000000000000000000600052601260045260246000fd5b7f4e487b7100000000000000000000000000000000000000000000000000000000600052602260045260246000fd5b7f4e487b7100000000000000000000000000000000000000000000000000000000600052604160045260246000fd5b6000601f19601f8301169050919050565b61171281611536565b811461171d57600080fd5b50565b61172981611568565b811461173457600080fd5b50565b61174081611572565b811461174b57600080fd5b5056fea26469706673582212203c927f544be72521b29499c47c7b69653e6c3ae5de89607a36fe6c313e41591264736f6c63430008000033",
  "immutableReferences": {},
  "source": "// SPDX-License-Identifier: MIT\r\npragma solidity ^0.8.0;\r\n\r\ncontract AIModelMarketplace {\r\n    \r\n    struct Model {\r\n        string name;\r\n        string description;\r\n        uint256 price;\r\n        address creator;\r\n        uint256 totalRating;\r\n        uint256 numberOfRatings;\r\n    }\r\n\r\n    // Array to store models\r\n    Model[] public models;\r\n\r\n    // Mapping from model ID to the users' ratings\r\n    mapping(uint256 => mapping(address => uint8)) public ratings;\r\n\r\n    // Event emitted when a model is listed\r\n    event ModelListed(uint256 modelId, string name, string description, uint256 price, address creator);\r\n\r\n    // Event emitted when a model is purchased\r\n    event ModelPurchased(uint256 modelId, address buyer, uint256 price);\r\n\r\n    // Event emitted when a rating is given\r\n    event ModelRated(uint256 modelId, address rater, uint8 rating);\r\n\r\n    // Function to list a new AI model\r\n    function listModel(string memory name, string memory description, uint256 price) public {\r\n        require(price > 0, \"Price must be greater than 0\");\r\n\r\n        // Create a new model and store it\r\n        models.push(Model({\r\n            name: name,\r\n            description: description,\r\n            price: price,\r\n            creator: msg.sender,\r\n            totalRating: 0,\r\n            numberOfRatings: 0\r\n        }));\r\n\r\n        uint256 modelId = models.length - 1; // Get the ID of the newly added model\r\n        \r\n        emit ModelListed(modelId, name, description, price, msg.sender);\r\n    }\r\n\r\n    // Function to purchase a model\r\n    function purchaseModel(uint256 modelId) public payable {\r\n        require(modelId < models.length, \"Invalid model ID\");\r\n        Model storage model = models[modelId];\r\n        require(msg.value == model.price, \"Incorrect price sent\");\r\n\r\n        // Transfer the funds to the model creator\r\n        payable(model.creator).transfer(msg.value);\r\n\r\n        emit ModelPurchased(modelId, msg.sender, model.price);\r\n    }\r\n\r\n    // Function to rate a purchased model\r\n    function rateModel(uint256 modelId, uint8 rating) public {\r\n        require(modelId < models.length, \"Invalid model ID\");\r\n        require(rating >= 1 && rating <= 5, \"Rating must be between 1 and 5\");\r\n\r\n        Model storage model = models[modelId];\r\n\r\n        // Ensure the model is purchased by the rater before they can rate\r\n        require(ratings[modelId][msg.sender] == 0, \"You have already rated this model\");\r\n        \r\n        ratings[modelId][msg.sender] = rating;\r\n\r\n        // Update the total rating and number of ratings\r\n        model.totalRating += rating;\r\n        model.numberOfRatings++;\r\n\r\n        emit ModelRated(modelId, msg.sender, rating);\r\n    }\r\n\r\n    // Function to withdraw funds (for contract owner or creators)\r\n    function withdrawFunds() public {\r\n        // Only contract owner can withdraw funds\r\n        require(msg.sender == address(this), \"Only contract owner can withdraw funds\");\r\n\r\n        uint256 balance = address(this).balance;\r\n        require(balance > 0, \"No funds to withdraw\");\r\n\r\n        payable(msg.sender).transfer(balance);\r\n    }\r\n\r\n    // Function to get details of a model\r\n    function getModelDetails(uint256 modelId) public view returns (string memory name, string memory description, uint256 price, address creator, uint256 averageRating) {\r\n        require(modelId < models.length, \"Invalid model ID\");\r\n\r\n        Model storage model = models[modelId];\r\n\r\n        uint256 avgRating = model.numberOfRatings == 0 ? 0 : model.totalRating / model.numberOfRatings;\r\n\r\n        return (model.name, model.description, model.price, model.creator, avgRating);\r\n    }\r\n\r\n    // Function to get the number of models listed\r\n    function getModelCount() public view returns (uint256) {\r\n        return models.length;\r\n    }\r\n}\r\n",
  "sourcePath": "C:\\Users\\alisher\\AIModelMarketplace\\contracts\\AIModelMarketplace.sol",
  "compiler": {
    "name": "solc",
    "version": "0.8.0+commit.c7dfd78e.Emscripten.clang"
  },
  "schemaVersion": "3.4.16",
  "updatedAt": "2025-01-08T08:48:04.483Z",
  "networkType": "ethereum",
  "devdoc": {
    "kind": "dev",
    "methods": {},
    "version": 1
  },
  "userdoc": {
    "kind": "user",
    "methods": {},
    "version": 1
  }
}